{
  "_format": "hh-sol-artifact-1",
  "contractName": "SimpleDEX",
  "sourceName": "contracts/SimpleDEX.sol",
  "abi": [
    {
      "inputs": [
        {
          "internalType": "address",
          "name": "_pepeToken",
          "type": "address"
        },
        {
          "internalType": "address",
          "name": "_usdcToken",
          "type": "address"
        }
      ],
      "stateMutability": "nonpayable",
      "type": "constructor"
    },
    {
      "inputs": [
        {
          "internalType": "address",
          "name": "owner",
          "type": "address"
        }
      ],
      "name": "OwnableInvalidOwner",
      "type": "error"
    },
    {
      "inputs": [
        {
          "internalType": "address",
          "name": "account",
          "type": "address"
        }
      ],
      "name": "OwnableUnauthorizedAccount",
      "type": "error"
    },
    {
      "inputs": [],
      "name": "ReentrancyGuardReentrantCall",
      "type": "error"
    },
    {
      "inputs": [
        {
          "internalType": "address",
          "name": "token",
          "type": "address"
        }
      ],
      "name": "SafeERC20FailedOperation",
      "type": "error"
    },
    {
      "anonymous": false,
      "inputs": [
        {
          "indexed": false,
          "internalType": "uint256",
          "name": "pepeAmount",
          "type": "uint256"
        },
        {
          "indexed": false,
          "internalType": "uint256",
          "name": "usdcAmount",
          "type": "uint256"
        }
      ],
      "name": "LiquidityAdded",
      "type": "event"
    },
    {
      "anonymous": false,
      "inputs": [
        {
          "indexed": true,
          "internalType": "address",
          "name": "previousOwner",
          "type": "address"
        },
        {
          "indexed": true,
          "internalType": "address",
          "name": "newOwner",
          "type": "address"
        }
      ],
      "name": "OwnershipTransferred",
      "type": "event"
    },
    {
      "anonymous": false,
      "inputs": [
        {
          "indexed": true,
          "internalType": "address",
          "name": "user",
          "type": "address"
        },
        {
          "indexed": true,
          "internalType": "address",
          "name": "tokenIn",
          "type": "address"
        },
        {
          "indexed": true,
          "internalType": "address",
          "name": "tokenOut",
          "type": "address"
        },
        {
          "indexed": false,
          "internalType": "uint256",
          "name": "amountIn",
          "type": "uint256"
        },
        {
          "indexed": false,
          "internalType": "uint256",
          "name": "amountOut",
          "type": "uint256"
        }
      ],
      "name": "TokenSwapped",
      "type": "event"
    },
    {
      "inputs": [],
      "name": "EXCHANGE_RATE",
      "outputs": [
        {
          "internalType": "uint256",
          "name": "",
          "type": "uint256"
        }
      ],
      "stateMutability": "view",
      "type": "function"
    },
    {
      "inputs": [],
      "name": "RATE_DENOMINATOR",
      "outputs": [
        {
          "internalType": "uint256",
          "name": "",
          "type": "uint256"
        }
      ],
      "stateMutability": "view",
      "type": "function"
    },
    {
      "inputs": [
        {
          "internalType": "uint256",
          "name": "_pepeAmount",
          "type": "uint256"
        },
        {
          "internalType": "uint256",
          "name": "_usdcAmount",
          "type": "uint256"
        }
      ],
      "name": "addLiquidity",
      "outputs": [],
      "stateMutability": "nonpayable",
      "type": "function"
    },
    {
      "inputs": [
        {
          "internalType": "uint256",
          "name": "_pepeAmount",
          "type": "uint256"
        }
      ],
      "name": "calculatePepeToUsdc",
      "outputs": [
        {
          "internalType": "uint256",
          "name": "",
          "type": "uint256"
        }
      ],
      "stateMutability": "pure",
      "type": "function"
    },
    {
      "inputs": [
        {
          "internalType": "uint256",
          "name": "_usdcAmount",
          "type": "uint256"
        }
      ],
      "name": "calculateUsdcToPepe",
      "outputs": [
        {
          "internalType": "uint256",
          "name": "",
          "type": "uint256"
        }
      ],
      "stateMutability": "pure",
      "type": "function"
    },
    {
      "inputs": [],
      "name": "getExchangeRate",
      "outputs": [
        {
          "internalType": "uint256",
          "name": "rate",
          "type": "uint256"
        },
        {
          "internalType": "uint256",
          "name": "denominator",
          "type": "uint256"
        }
      ],
      "stateMutability": "pure",
      "type": "function"
    },
    {
      "inputs": [],
      "name": "getReserves",
      "outputs": [
        {
          "internalType": "uint256",
          "name": "_pepeReserve",
          "type": "uint256"
        },
        {
          "internalType": "uint256",
          "name": "_usdcReserve",
          "type": "uint256"
        }
      ],
      "stateMutability": "view",
      "type": "function"
    },
    {
      "inputs": [],
      "name": "owner",
      "outputs": [
        {
          "internalType": "address",
          "name": "",
          "type": "address"
        }
      ],
      "stateMutability": "view",
      "type": "function"
    },
    {
      "inputs": [],
      "name": "pepeReserve",
      "outputs": [
        {
          "internalType": "uint256",
          "name": "",
          "type": "uint256"
        }
      ],
      "stateMutability": "view",
      "type": "function"
    },
    {
      "inputs": [],
      "name": "pepeToken",
      "outputs": [
        {
          "internalType": "contract IERC20",
          "name": "",
          "type": "address"
        }
      ],
      "stateMutability": "view",
      "type": "function"
    },
    {
      "inputs": [],
      "name": "renounceOwnership",
      "outputs": [],
      "stateMutability": "nonpayable",
      "type": "function"
    },
    {
      "inputs": [
        {
          "internalType": "uint256",
          "name": "_pepeAmount",
          "type": "uint256"
        }
      ],
      "name": "swapPepeToUsdc",
      "outputs": [],
      "stateMutability": "nonpayable",
      "type": "function"
    },
    {
      "inputs": [
        {
          "internalType": "uint256",
          "name": "_usdcAmount",
          "type": "uint256"
        }
      ],
      "name": "swapUsdcToPepe",
      "outputs": [],
      "stateMutability": "nonpayable",
      "type": "function"
    },
    {
      "inputs": [
        {
          "internalType": "address",
          "name": "newOwner",
          "type": "address"
        }
      ],
      "name": "transferOwnership",
      "outputs": [],
      "stateMutability": "nonpayable",
      "type": "function"
    },
    {
      "inputs": [],
      "name": "usdcReserve",
      "outputs": [
        {
          "internalType": "uint256",
          "name": "",
          "type": "uint256"
        }
      ],
      "stateMutability": "view",
      "type": "function"
    },
    {
      "inputs": [],
      "name": "usdcToken",
      "outputs": [
        {
          "internalType": "contract IERC20",
          "name": "",
          "type": "address"
        }
      ],
      "stateMutability": "view",
      "type": "function"
    }
  ],
  "bytecode": "0x60c060405234801561001057600080fd5b50604051610d7b380380610d7b83398101604081905261002f91610196565b6001600055338061005b57604051631e4fbdf760e01b8152600060048201526024015b60405180910390fd5b61006481610128565b506001600160a01b0382166100bb5760405162461bcd60e51b815260206004820152601a60248201527f496e76616c6964205045504520746f6b656e20616464726573730000000000006044820152606401610052565b6001600160a01b0381166101115760405162461bcd60e51b815260206004820152601a60248201527f496e76616c6964205553444320746f6b656e20616464726573730000000000006044820152606401610052565b6001600160a01b039182166080521660a0526101c9565b600180546001600160a01b038381166001600160a01b0319831681179093556040519116919082907f8be0079c531659141344cd1fd0a4f28419497f9722a3daafe3b4186f6b6457e090600090a35050565b80516001600160a01b038116811461019157600080fd5b919050565b600080604083850312156101a957600080fd5b6101b28361017a565b91506101c06020840161017a565b90509250929050565b60805160a051610b476102346000396000818161012b0152818161035b01528181610423015281816105b701528181610626015261079a01526000818161019e01528181610390015281816103ff015281816105820152818161064a01526107650152610b476000f3fe608060405234801561001057600080fd5b50600436106101005760003560e01c806350ccd45b116100975780638da5cb5b116100665780638da5cb5b146102145780639cd441da14610225578063e6aa216c14610238578063f2fde38b1461024357600080fd5b806350ccd45b146101e65780636a5809cc146101f9578063715018a6146102025780637efad8e01461020a57600080fd5b806317733d02116100d357806317733d021461018457806321cc4c3f146101995780632bd71e29146101c05780632f8a4aa0146101d357600080fd5b80630902f1ac1461010557806311eac8551461012657806314a8bd0d146101655780631663096a1461017b575b600080fd5b6002546003545b604080519283526020830191909152015b60405180910390f35b61014d7f000000000000000000000000000000000000000000000000000000000000000081565b6040516001600160a01b03909116815260200161011d565b61016d600581565b60405190815260200161011d565b61016d60025481565b610197610192366004610a31565b610256565b005b61014d7f000000000000000000000000000000000000000000000000000000000000000081565b6101976101ce366004610a31565b610482565b61016d6101e1366004610a31565b610697565b61016d6101f4366004610a31565b6106c6565b61016d60035481565b6101976106e6565b61016d620f424081565b6001546001600160a01b031661014d565b610197610233366004610a4a565b6106fa565b6005620f424061010c565b610197610251366004610a6c565b610839565b61025e610874565b600081116102a95760405162461bcd60e51b8152602060048201526013602482015272125b9d985b1a59081554d110c8185b5bdd5b9d606a1b60448201526064015b60405180910390fd5b60006102b4826106c6565b9050600081116102fc5760405162461bcd60e51b8152602060048201526013602482015272125b9d985b1a59081cddd85c08185b5bdd5b9d606a1b60448201526064016102a0565b80600254101561034e5760405162461bcd60e51b815260206004820152601b60248201527f496e73756666696369656e742050455045206c6971756964697479000000000060448201526064016102a0565b6103836001600160a01b037f00000000000000000000000000000000000000000000000000000000000000001633308561089e565b6103b76001600160a01b037f000000000000000000000000000000000000000000000000000000000000000016338361090b565b81600360008282546103c99190610ab2565b9250508190555080600260008282546103e29190610ac5565b909155505060408051838152602081018390526001600160a01b037f00000000000000000000000000000000000000000000000000000000000000008116927f00000000000000000000000000000000000000000000000000000000000000009091169133917fd36cc53ba71bc76a3db3364981f5296dd4ca5eba0e8c89874f2170515bd20d2491015b60405180910390a45061047f6001600055565b50565b61048a610874565b600081116104d05760405162461bcd60e51b8152602060048201526013602482015272125b9d985b1a59081411541148185b5bdd5b9d606a1b60448201526064016102a0565b60006104db82610697565b9050600081116105235760405162461bcd60e51b8152602060048201526013602482015272125b9d985b1a59081cddd85c08185b5bdd5b9d606a1b60448201526064016102a0565b8060035410156105755760405162461bcd60e51b815260206004820152601b60248201527f496e73756666696369656e742055534443206c6971756964697479000000000060448201526064016102a0565b6105aa6001600160a01b037f00000000000000000000000000000000000000000000000000000000000000001633308561089e565b6105de6001600160a01b037f000000000000000000000000000000000000000000000000000000000000000016338361090b565b81600260008282546105f09190610ab2565b9250508190555080600360008282546106099190610ac5565b909155505060408051838152602081018390526001600160a01b037f00000000000000000000000000000000000000000000000000000000000000008116927f00000000000000000000000000000000000000000000000000000000000000009091169133917fd36cc53ba71bc76a3db3364981f5296dd4ca5eba0e8c89874f2170515bd20d24910161046c565b60006106ab620f424064e8d4a51000610ad8565b6106b6600584610ad8565b6106c09190610aef565b92915050565b600060056106d7620f424084610ad8565b6106b69064e8d4a51000610ad8565b6106ee610941565b6106f8600061096e565b565b610702610941565b61070a610874565b60008211801561071a5750600081115b6107585760405162461bcd60e51b815260206004820152600f60248201526e496e76616c696420616d6f756e747360881b60448201526064016102a0565b61078d6001600160a01b037f00000000000000000000000000000000000000000000000000000000000000001633308561089e565b6107c26001600160a01b037f00000000000000000000000000000000000000000000000000000000000000001633308461089e565b81600260008282546107d49190610ab2565b9250508190555080600360008282546107ed9190610ab2565b909155505060408051838152602081018390527f38f8a0c92f4c5b0b6877f878cb4c0c8d348a47b76d716c8e78f425043df9515b910160405180910390a16108356001600055565b5050565b610841610941565b6001600160a01b03811661086b57604051631e4fbdf760e01b8152600060048201526024016102a0565b61047f8161096e565b60026000540361089757604051633ee5aeb560e01b815260040160405180910390fd5b6002600055565b6040516001600160a01b0384811660248301528381166044830152606482018390526109059186918216906323b872dd906084015b604051602081830303815290604052915060e01b6020820180516001600160e01b0383818316178352505050506109c0565b50505050565b6040516001600160a01b0383811660248301526044820183905261093c91859182169063a9059cbb906064016108d3565b505050565b6001546001600160a01b031633146106f85760405163118cdaa760e01b81523360048201526024016102a0565b600180546001600160a01b038381166001600160a01b0319831681179093556040519116919082907f8be0079c531659141344cd1fd0a4f28419497f9722a3daafe3b4186f6b6457e090600090a35050565b600080602060008451602086016000885af1806109e3576040513d6000823e3d81fd5b50506000513d915081156109fb578060011415610a08565b6001600160a01b0384163b155b1561090557604051635274afe760e01b81526001600160a01b03851660048201526024016102a0565b600060208284031215610a4357600080fd5b5035919050565b60008060408385031215610a5d57600080fd5b50508035926020909101359150565b600060208284031215610a7e57600080fd5b81356001600160a01b0381168114610a9557600080fd5b9392505050565b634e487b7160e01b600052601160045260246000fd5b808201808211156106c0576106c0610a9c565b818103818111156106c0576106c0610a9c565b80820281158282048414176106c0576106c0610a9c565b600082610b0c57634e487b7160e01b600052601260045260246000fd5b50049056fea264697066735822122048c96e467d6256b47a2b4abcb4e0ef6fae0f42bbd7c8de1412b0934ebf72f04264736f6c63430008140033",
  "linkReferences": {},
  "deployedLinkReferences": {}
}