{
  "_format": "hh-sol-artifact-1",
  "contractName": "SimpleDEXOptimized",
  "sourceName": "contracts/SimpleDEX.sol",
  "abi": [
    {
      "inputs": [
        {
          "internalType": "address",
          "name": "_pepeToken",
          "type": "address"
        },
        {
          "internalType": "address",
          "name": "_usdcToken",
          "type": "address"
        }
      ],
      "stateMutability": "nonpayable",
      "type": "constructor"
    },
    {
      "inputs": [],
      "name": "InsufficientAmount",
      "type": "error"
    },
    {
      "inputs": [],
      "name": "InsufficientLiquidity",
      "type": "error"
    },
    {
      "inputs": [
        {
          "internalType": "address",
          "name": "owner",
          "type": "address"
        }
      ],
      "name": "OwnableInvalidOwner",
      "type": "error"
    },
    {
      "inputs": [
        {
          "internalType": "address",
          "name": "account",
          "type": "address"
        }
      ],
      "name": "OwnableUnauthorizedAccount",
      "type": "error"
    },
    {
      "inputs": [],
      "name": "ReentrancyGuardReentrantCall",
      "type": "error"
    },
    {
      "inputs": [],
      "name": "TransferFailed",
      "type": "error"
    },
    {
      "anonymous": false,
      "inputs": [
        {
          "indexed": false,
          "internalType": "uint256",
          "name": "pepeAmount",
          "type": "uint256"
        },
        {
          "indexed": false,
          "internalType": "uint256",
          "name": "usdcAmount",
          "type": "uint256"
        }
      ],
      "name": "LiquidityAdded",
      "type": "event"
    },
    {
      "anonymous": false,
      "inputs": [
        {
          "indexed": true,
          "internalType": "address",
          "name": "previousOwner",
          "type": "address"
        },
        {
          "indexed": true,
          "internalType": "address",
          "name": "newOwner",
          "type": "address"
        }
      ],
      "name": "OwnershipTransferred",
      "type": "event"
    },
    {
      "anonymous": false,
      "inputs": [
        {
          "indexed": true,
          "internalType": "address",
          "name": "user",
          "type": "address"
        },
        {
          "indexed": true,
          "internalType": "address",
          "name": "tokenIn",
          "type": "address"
        },
        {
          "indexed": true,
          "internalType": "address",
          "name": "tokenOut",
          "type": "address"
        },
        {
          "indexed": false,
          "internalType": "uint256",
          "name": "amountIn",
          "type": "uint256"
        },
        {
          "indexed": false,
          "internalType": "uint256",
          "name": "amountOut",
          "type": "uint256"
        }
      ],
      "name": "TokenSwapped",
      "type": "event"
    },
    {
      "inputs": [
        {
          "internalType": "uint256",
          "name": "_pepeAmount",
          "type": "uint256"
        },
        {
          "internalType": "uint256",
          "name": "_usdcAmount",
          "type": "uint256"
        }
      ],
      "name": "addLiquidity",
      "outputs": [],
      "stateMutability": "nonpayable",
      "type": "function"
    },
    {
      "inputs": [
        {
          "internalType": "uint256",
          "name": "_pepeAmount",
          "type": "uint256"
        }
      ],
      "name": "calculatePepeToUsdc",
      "outputs": [
        {
          "internalType": "uint256",
          "name": "",
          "type": "uint256"
        }
      ],
      "stateMutability": "pure",
      "type": "function"
    },
    {
      "inputs": [
        {
          "internalType": "uint256",
          "name": "_usdcAmount",
          "type": "uint256"
        }
      ],
      "name": "calculateUsdcToPepe",
      "outputs": [
        {
          "internalType": "uint256",
          "name": "",
          "type": "uint256"
        }
      ],
      "stateMutability": "pure",
      "type": "function"
    },
    {
      "inputs": [],
      "name": "emergencyWithdraw",
      "outputs": [],
      "stateMutability": "nonpayable",
      "type": "function"
    },
    {
      "inputs": [],
      "name": "getExchangeRate",
      "outputs": [
        {
          "internalType": "uint256",
          "name": "rate",
          "type": "uint256"
        },
        {
          "internalType": "uint256",
          "name": "denominator",
          "type": "uint256"
        }
      ],
      "stateMutability": "pure",
      "type": "function"
    },
    {
      "inputs": [],
      "name": "getReserves",
      "outputs": [
        {
          "internalType": "uint256",
          "name": "_pepeReserve",
          "type": "uint256"
        },
        {
          "internalType": "uint256",
          "name": "_usdcReserve",
          "type": "uint256"
        }
      ],
      "stateMutability": "view",
      "type": "function"
    },
    {
      "inputs": [],
      "name": "owner",
      "outputs": [
        {
          "internalType": "address",
          "name": "",
          "type": "address"
        }
      ],
      "stateMutability": "view",
      "type": "function"
    },
    {
      "inputs": [],
      "name": "pepeToken",
      "outputs": [
        {
          "internalType": "contract IERC20",
          "name": "",
          "type": "address"
        }
      ],
      "stateMutability": "view",
      "type": "function"
    },
    {
      "inputs": [],
      "name": "renounceOwnership",
      "outputs": [],
      "stateMutability": "nonpayable",
      "type": "function"
    },
    {
      "inputs": [],
      "name": "reserves",
      "outputs": [
        {
          "internalType": "uint128",
          "name": "pepeReserve",
          "type": "uint128"
        },
        {
          "internalType": "uint128",
          "name": "usdcReserve",
          "type": "uint128"
        }
      ],
      "stateMutability": "view",
      "type": "function"
    },
    {
      "inputs": [
        {
          "internalType": "uint256",
          "name": "_pepeAmount",
          "type": "uint256"
        }
      ],
      "name": "swapPepeToUsdc",
      "outputs": [],
      "stateMutability": "nonpayable",
      "type": "function"
    },
    {
      "inputs": [
        {
          "internalType": "uint256",
          "name": "_usdcAmount",
          "type": "uint256"
        }
      ],
      "name": "swapUsdcToPepe",
      "outputs": [],
      "stateMutability": "nonpayable",
      "type": "function"
    },
    {
      "inputs": [
        {
          "internalType": "address",
          "name": "newOwner",
          "type": "address"
        }
      ],
      "name": "transferOwnership",
      "outputs": [],
      "stateMutability": "nonpayable",
      "type": "function"
    },
    {
      "inputs": [],
      "name": "usdcToken",
      "outputs": [
        {
          "internalType": "contract IERC20",
          "name": "",
          "type": "address"
        }
      ],
      "stateMutability": "view",
      "type": "function"
    }
  ],
  "bytecode": "0x60c060405234801561001057600080fd5b506040516112b33803806112b383398101604081905261002f916100e9565b6001600055338061005a57604051631e4fbdf760e01b81526000600482015260240160405180910390fd5b6100638161007b565b506001600160a01b039182166080521660a05261011c565b600180546001600160a01b038381166001600160a01b0319831681179093556040519116919082907f8be0079c531659141344cd1fd0a4f28419497f9722a3daafe3b4186f6b6457e090600090a35050565b80516001600160a01b03811681146100e457600080fd5b919050565b600080604083850312156100fc57600080fd5b610105836100cd565b9150610113602084016100cd565b90509250929050565b60805160a0516111106101a360003960008181610126015281816103bb01528181610543015281816107d70152818161086b01528181610a7b01528181610ca70152610dd601526000818161017a01528181610485015281816105190152818161070d01528181610895015281816109cb01528181610c110152610d1c01526111106000f3fe608060405234801561001057600080fd5b50600436106100ea5760003560e01c8063715018a61161008c5780639cd441da116100665780639cd441da1461023a578063db2e21bc1461024d578063e6aa216c14610255578063f2fde38b1461026057600080fd5b8063715018a6146101e357806375172a8b146101eb5780638da5cb5b1461022957600080fd5b806321cc4c3f116100c857806321cc4c3f146101755780632bd71e291461019c5780632f8a4aa0146101af57806350ccd45b146101d057600080fd5b80630902f1ac146100ef57806311eac8551461012157806317733d0214610160575b600080fd5b6002546001600160801b0380821691600160801b9004165b604080519283526020830191909152015b60405180910390f35b6101487f000000000000000000000000000000000000000000000000000000000000000081565b6040516001600160a01b039091168152602001610118565b61017361016e366004610f7a565b610273565b005b6101487f000000000000000000000000000000000000000000000000000000000000000081565b6101736101aa366004610f7a565b6105c5565b6101c26101bd366004610f7a565b610901565b604051908152602001610118565b6101c26101de366004610f7a565b610941565b610173610967565b600254610209906001600160801b0380821691600160801b90041682565b604080516001600160801b03938416815292909116602083015201610118565b6001546001600160a01b0316610148565b610173610248366004610f93565b61097b565b610173610bf1565b6005620f4240610107565b61017361026e366004610fb5565b610e91565b61027b610ed1565b8060000361029c57604051632ca2f52b60e11b815260040160405180910390fd5b60006102ac620f42406005610ffb565b670de0b6b3a76400006102c2620f424085610ffb565b6102cc9190610ffb565b6102d69190611012565b9050806000036102f957604051632ca2f52b60e11b815260040160405180910390fd5b6002546001600160801b03168111156103255760405163bb55fd2760e01b815260040160405180910390fd5b6002805483919060109061034a908490600160801b90046001600160801b0316611034565b92506101000a8154816001600160801b0302191690836001600160801b0316021790555080600260000160008282829054906101000a90046001600160801b0316610395919061105b565b92506101000a8154816001600160801b0302191690836001600160801b031602179055507f00000000000000000000000000000000000000000000000000000000000000006001600160a01b03166323b872dd3330856040518463ffffffff1660e01b81526004016104099392919061107b565b6020604051808303816000875af1158015610428573d6000803e3d6000fd5b505050506040513d601f19601f8201168201806040525081019061044c919061109f565b610469576040516312171d8360e31b815260040160405180910390fd5b60405163a9059cbb60e01b8152336004820152602481018290527f00000000000000000000000000000000000000000000000000000000000000006001600160a01b03169063a9059cbb906044016020604051808303816000875af11580156104d6573d6000803e3d6000fd5b505050506040513d601f19601f820116820180604052508101906104fa919061109f565b610517576040516312171d8360e31b815260040160405180910390fd5b7f00000000000000000000000000000000000000000000000000000000000000006001600160a01b03167f00000000000000000000000000000000000000000000000000000000000000006001600160a01b0316336001600160a01b03167fd36cc53ba71bc76a3db3364981f5296dd4ca5eba0e8c89874f2170515bd20d2485856040516105af929190918252602082015260400190565b60405180910390a4506105c26001600055565b50565b6105cd610ed1565b806000036105ee57604051632ca2f52b60e11b815260040160405180910390fd5b6000610605670de0b6b3a7640000620f4240610ffb565b620f4240610614600585610ffb565b61061e9190610ffb565b6106289190611012565b90508060000361064b57604051632ca2f52b60e11b815260040160405180910390fd5b600254600160801b90046001600160801b031681111561067e5760405163bb55fd2760e01b815260040160405180910390fd5b6002805483919060009061069c9084906001600160801b0316611034565b92506101000a8154816001600160801b0302191690836001600160801b0316021790555080600260000160108282829054906101000a90046001600160801b03166106e7919061105b565b92506101000a8154816001600160801b0302191690836001600160801b031602179055507f00000000000000000000000000000000000000000000000000000000000000006001600160a01b03166323b872dd3330856040518463ffffffff1660e01b815260040161075b9392919061107b565b6020604051808303816000875af115801561077a573d6000803e3d6000fd5b505050506040513d601f19601f8201168201806040525081019061079e919061109f565b6107bb576040516312171d8360e31b815260040160405180910390fd5b60405163a9059cbb60e01b8152336004820152602481018290527f00000000000000000000000000000000000000000000000000000000000000006001600160a01b03169063a9059cbb906044016020604051808303816000875af1158015610828573d6000803e3d6000fd5b505050506040513d601f19601f8201168201806040525081019061084c919061109f565b610869576040516312171d8360e31b815260040160405180910390fd5b7f00000000000000000000000000000000000000000000000000000000000000006001600160a01b03167f00000000000000000000000000000000000000000000000000000000000000006001600160a01b0316336001600160a01b03167fd36cc53ba71bc76a3db3364981f5296dd4ca5eba0e8c89874f2170515bd20d2485856040516105af929190918252602082015260400190565b6000610918670de0b6b3a7640000620f4240610ffb565b620f4240610927600585610ffb565b6109319190610ffb565b61093b9190611012565b92915050565b6000610951620f42406005610ffb565b670de0b6b3a7640000610927620f424085610ffb565b61096f610efb565b6109796000610f28565b565b610983610efb565b61098b610ed1565b811580610996575080155b156109b457604051632ca2f52b60e11b815260040160405180910390fd5b6040516323b872dd60e01b81526001600160a01b037f000000000000000000000000000000000000000000000000000000000000000016906323b872dd90610a049033903090879060040161107b565b6020604051808303816000875af1158015610a23573d6000803e3d6000fd5b505050506040513d601f19601f82011682018060405250810190610a47919061109f565b610a64576040516312171d8360e31b815260040160405180910390fd5b6040516323b872dd60e01b81526001600160a01b037f000000000000000000000000000000000000000000000000000000000000000016906323b872dd90610ab49033903090869060040161107b565b6020604051808303816000875af1158015610ad3573d6000803e3d6000fd5b505050506040513d601f19601f82011682018060405250810190610af7919061109f565b610b14576040516312171d8360e31b815260040160405180910390fd5b60028054839190600090610b329084906001600160801b0316611034565b92506101000a8154816001600160801b0302191690836001600160801b0316021790555080600260000160108282829054906101000a90046001600160801b0316610b7d9190611034565b92506101000a8154816001600160801b0302191690836001600160801b031602179055507f38f8a0c92f4c5b0b6877f878cb4c0c8d348a47b76d716c8e78f425043df9515b8282604051610bdb929190918252602082015260400190565b60405180910390a1610bed6001600055565b5050565b610bf9610efb565b6040516370a0823160e01b81523060048201526000907f00000000000000000000000000000000000000000000000000000000000000006001600160a01b0316906370a0823190602401602060405180830381865afa158015610c60573d6000803e3d6000fd5b505050506040513d601f19601f82011682018060405250810190610c8491906110c1565b6040516370a0823160e01b81523060048201529091506000906001600160a01b037f000000000000000000000000000000000000000000000000000000000000000016906370a0823190602401602060405180830381865afa158015610cee573d6000803e3d6000fd5b505050506040513d601f19601f82011682018060405250810190610d1291906110c1565b90508115610dce577f00000000000000000000000000000000000000000000000000000000000000006001600160a01b031663a9059cbb610d5b6001546001600160a01b031690565b6040516001600160e01b031960e084901b1681526001600160a01b039091166004820152602481018590526044016020604051808303816000875af1158015610da8573d6000803e3d6000fd5b505050506040513d601f19601f82011682018060405250810190610dcc919061109f565b505b8015610e88577f00000000000000000000000000000000000000000000000000000000000000006001600160a01b031663a9059cbb610e156001546001600160a01b031690565b6040516001600160e01b031960e084901b1681526001600160a01b039091166004820152602481018490526044016020604051808303816000875af1158015610e62573d6000803e3d6000fd5b505050506040513d601f19601f82011682018060405250810190610e86919061109f565b505b50506000600255565b610e99610efb565b6001600160a01b038116610ec857604051631e4fbdf760e01b8152600060048201526024015b60405180910390fd5b6105c281610f28565b600260005403610ef457604051633ee5aeb560e01b815260040160405180910390fd5b6002600055565b6001546001600160a01b031633146109795760405163118cdaa760e01b8152336004820152602401610ebf565b600180546001600160a01b038381166001600160a01b0319831681179093556040519116919082907f8be0079c531659141344cd1fd0a4f28419497f9722a3daafe3b4186f6b6457e090600090a35050565b600060208284031215610f8c57600080fd5b5035919050565b60008060408385031215610fa657600080fd5b50508035926020909101359150565b600060208284031215610fc757600080fd5b81356001600160a01b0381168114610fde57600080fd5b9392505050565b634e487b7160e01b600052601160045260246000fd5b808202811582820484141761093b5761093b610fe5565b60008261102f57634e487b7160e01b600052601260045260246000fd5b500490565b6001600160801b0381811683821601908082111561105457611054610fe5565b5092915050565b6001600160801b0382811682821603908082111561105457611054610fe5565b6001600160a01b039384168152919092166020820152604081019190915260600190565b6000602082840312156110b157600080fd5b81518015158114610fde57600080fd5b6000602082840312156110d357600080fd5b505191905056fea264697066735822122025e870c7b581b7a56123ff9d9546c24d47456d30d0529dec5becea8e1613a45b64736f6c63430008140033",
  "linkReferences": {},
  "deployedLinkReferences": {}
}