{
  "_format": "hh-sol-artifact-1",
  "contractName": "MockUSDC",
  "sourceName": "contracts/MockUSDC.sol",
  "abi": [
    {
      "inputs": [],
      "stateMutability": "nonpayable",
      "type": "constructor"
    },
    {
      "inputs": [
        {
          "internalType": "address",
          "name": "spender",
          "type": "address"
        },
        {
          "internalType": "uint256",
          "name": "allowance",
          "type": "uint256"
        },
        {
          "internalType": "uint256",
          "name": "needed",
          "type": "uint256"
        }
      ],
      "name": "ERC20InsufficientAllowance",
      "type": "error"
    },
    {
      "inputs": [
        {
          "internalType": "address",
          "name": "sender",
          "type": "address"
        },
        {
          "internalType": "uint256",
          "name": "balance",
          "type": "uint256"
        },
        {
          "internalType": "uint256",
          "name": "needed",
          "type": "uint256"
        }
      ],
      "name": "ERC20InsufficientBalance",
      "type": "error"
    },
    {
      "inputs": [
        {
          "internalType": "address",
          "name": "approver",
          "type": "address"
        }
      ],
      "name": "ERC20InvalidApprover",
      "type": "error"
    },
    {
      "inputs": [
        {
          "internalType": "address",
          "name": "receiver",
          "type": "address"
        }
      ],
      "name": "ERC20InvalidReceiver",
      "type": "error"
    },
    {
      "inputs": [
        {
          "internalType": "address",
          "name": "sender",
          "type": "address"
        }
      ],
      "name": "ERC20InvalidSender",
      "type": "error"
    },
    {
      "inputs": [
        {
          "internalType": "address",
          "name": "spender",
          "type": "address"
        }
      ],
      "name": "ERC20InvalidSpender",
      "type": "error"
    },
    {
      "inputs": [
        {
          "internalType": "address",
          "name": "owner",
          "type": "address"
        }
      ],
      "name": "OwnableInvalidOwner",
      "type": "error"
    },
    {
      "inputs": [
        {
          "internalType": "address",
          "name": "account",
          "type": "address"
        }
      ],
      "name": "OwnableUnauthorizedAccount",
      "type": "error"
    },
    {
      "anonymous": false,
      "inputs": [
        {
          "indexed": true,
          "internalType": "address",
          "name": "owner",
          "type": "address"
        },
        {
          "indexed": true,
          "internalType": "address",
          "name": "spender",
          "type": "address"
        },
        {
          "indexed": false,
          "internalType": "uint256",
          "name": "value",
          "type": "uint256"
        }
      ],
      "name": "Approval",
      "type": "event"
    },
    {
      "anonymous": false,
      "inputs": [
        {
          "indexed": true,
          "internalType": "address",
          "name": "user",
          "type": "address"
        },
        {
          "indexed": false,
          "internalType": "uint256",
          "name": "amount",
          "type": "uint256"
        }
      ],
      "name": "FaucetUsed",
      "type": "event"
    },
    {
      "anonymous": false,
      "inputs": [
        {
          "indexed": true,
          "internalType": "address",
          "name": "previousOwner",
          "type": "address"
        },
        {
          "indexed": true,
          "internalType": "address",
          "name": "newOwner",
          "type": "address"
        }
      ],
      "name": "OwnershipTransferred",
      "type": "event"
    },
    {
      "anonymous": false,
      "inputs": [
        {
          "indexed": true,
          "internalType": "address",
          "name": "from",
          "type": "address"
        },
        {
          "indexed": true,
          "internalType": "address",
          "name": "to",
          "type": "address"
        },
        {
          "indexed": false,
          "internalType": "uint256",
          "name": "value",
          "type": "uint256"
        }
      ],
      "name": "Transfer",
      "type": "event"
    },
    {
      "inputs": [],
      "name": "FAUCET_AMOUNT",
      "outputs": [
        {
          "internalType": "uint256",
          "name": "",
          "type": "uint256"
        }
      ],
      "stateMutability": "view",
      "type": "function"
    },
    {
      "inputs": [],
      "name": "FAUCET_COOLDOWN",
      "outputs": [
        {
          "internalType": "uint256",
          "name": "",
          "type": "uint256"
        }
      ],
      "stateMutability": "view",
      "type": "function"
    },
    {
      "inputs": [
        {
          "internalType": "address",
          "name": "owner",
          "type": "address"
        },
        {
          "internalType": "address",
          "name": "spender",
          "type": "address"
        }
      ],
      "name": "allowance",
      "outputs": [
        {
          "internalType": "uint256",
          "name": "",
          "type": "uint256"
        }
      ],
      "stateMutability": "view",
      "type": "function"
    },
    {
      "inputs": [
        {
          "internalType": "address",
          "name": "spender",
          "type": "address"
        },
        {
          "internalType": "uint256",
          "name": "value",
          "type": "uint256"
        }
      ],
      "name": "approve",
      "outputs": [
        {
          "internalType": "bool",
          "name": "",
          "type": "bool"
        }
      ],
      "stateMutability": "nonpayable",
      "type": "function"
    },
    {
      "inputs": [
        {
          "internalType": "address",
          "name": "account",
          "type": "address"
        }
      ],
      "name": "balanceOf",
      "outputs": [
        {
          "internalType": "uint256",
          "name": "",
          "type": "uint256"
        }
      ],
      "stateMutability": "view",
      "type": "function"
    },
    {
      "inputs": [],
      "name": "decimals",
      "outputs": [
        {
          "internalType": "uint8",
          "name": "",
          "type": "uint8"
        }
      ],
      "stateMutability": "pure",
      "type": "function"
    },
    {
      "inputs": [],
      "name": "faucet",
      "outputs": [],
      "stateMutability": "nonpayable",
      "type": "function"
    },
    {
      "inputs": [
        {
          "internalType": "address",
          "name": "user",
          "type": "address"
        }
      ],
      "name": "getFaucetCooldown",
      "outputs": [
        {
          "internalType": "uint256",
          "name": "",
          "type": "uint256"
        }
      ],
      "stateMutability": "view",
      "type": "function"
    },
    {
      "inputs": [
        {
          "internalType": "address",
          "name": "",
          "type": "address"
        }
      ],
      "name": "lastFaucetTime",
      "outputs": [
        {
          "internalType": "uint256",
          "name": "",
          "type": "uint256"
        }
      ],
      "stateMutability": "view",
      "type": "function"
    },
    {
      "inputs": [
        {
          "internalType": "address",
          "name": "to",
          "type": "address"
        },
        {
          "internalType": "uint256",
          "name": "amount",
          "type": "uint256"
        }
      ],
      "name": "mint",
      "outputs": [],
      "stateMutability": "nonpayable",
      "type": "function"
    },
    {
      "inputs": [],
      "name": "name",
      "outputs": [
        {
          "internalType": "string",
          "name": "",
          "type": "string"
        }
      ],
      "stateMutability": "view",
      "type": "function"
    },
    {
      "inputs": [],
      "name": "owner",
      "outputs": [
        {
          "internalType": "address",
          "name": "",
          "type": "address"
        }
      ],
      "stateMutability": "view",
      "type": "function"
    },
    {
      "inputs": [],
      "name": "renounceOwnership",
      "outputs": [],
      "stateMutability": "nonpayable",
      "type": "function"
    },
    {
      "inputs": [],
      "name": "symbol",
      "outputs": [
        {
          "internalType": "string",
          "name": "",
          "type": "string"
        }
      ],
      "stateMutability": "view",
      "type": "function"
    },
    {
      "inputs": [],
      "name": "totalSupply",
      "outputs": [
        {
          "internalType": "uint256",
          "name": "",
          "type": "uint256"
        }
      ],
      "stateMutability": "view",
      "type": "function"
    },
    {
      "inputs": [
        {
          "internalType": "address",
          "name": "to",
          "type": "address"
        },
        {
          "internalType": "uint256",
          "name": "value",
          "type": "uint256"
        }
      ],
      "name": "transfer",
      "outputs": [
        {
          "internalType": "bool",
          "name": "",
          "type": "bool"
        }
      ],
      "stateMutability": "nonpayable",
      "type": "function"
    },
    {
      "inputs": [
        {
          "internalType": "address",
          "name": "from",
          "type": "address"
        },
        {
          "internalType": "address",
          "name": "to",
          "type": "address"
        },
        {
          "internalType": "uint256",
          "name": "value",
          "type": "uint256"
        }
      ],
      "name": "transferFrom",
      "outputs": [
        {
          "internalType": "bool",
          "name": "",
          "type": "bool"
        }
      ],
      "stateMutability": "nonpayable",
      "type": "function"
    },
    {
      "inputs": [
        {
          "internalType": "address",
          "name": "newOwner",
          "type": "address"
        }
      ],
      "name": "transferOwnership",
      "outputs": [],
      "stateMutability": "nonpayable",
      "type": "function"
    }
  ],
  "bytecode": "0x60806040523480156200001157600080fd5b50336040518060400160405280600d81526020016c26b7b1b5902aa9a21021b7b4b760991b815250604051806040016040528060048152602001635553444360e01b815250816003908162000067919062000334565b50600462000076828262000334565b5050506001600160a01b038116620000a957604051631e4fbdf760e01b8152600060048201526024015b60405180910390fd5b620000b481620000cc565b50620000c63364174876e8006200011e565b62000428565b600580546001600160a01b038381166001600160a01b0319831681179093556040519116919082907f8be0079c531659141344cd1fd0a4f28419497f9722a3daafe3b4186f6b6457e090600090a35050565b6001600160a01b0382166200014a5760405163ec442f0560e01b815260006004820152602401620000a0565b62000158600083836200015c565b5050565b6001600160a01b0383166200018b5780600260008282546200017f919062000400565b90915550620001ff9050565b6001600160a01b03831660009081526020819052604090205481811015620001e05760405163391434e360e21b81526001600160a01b03851660048201526024810182905260448101839052606401620000a0565b6001600160a01b03841660009081526020819052604090209082900390555b6001600160a01b0382166200021d576002805482900390556200023c565b6001600160a01b03821660009081526020819052604090208054820190555b816001600160a01b0316836001600160a01b03167fddf252ad1be2c89b69c2b068fc378daa952ba7f163c4a11628f55a4df523b3ef836040516200028291815260200190565b60405180910390a3505050565b634e487b7160e01b600052604160045260246000fd5b600181811c90821680620002ba57607f821691505b602082108103620002db57634e487b7160e01b600052602260045260246000fd5b50919050565b601f8211156200032f57600081815260208120601f850160051c810160208610156200030a5750805b601f850160051c820191505b818110156200032b5782815560010162000316565b5050505b505050565b81516001600160401b038111156200035057620003506200028f565b6200036881620003618454620002a5565b84620002e1565b602080601f831160018114620003a05760008415620003875750858301515b600019600386901b1c1916600185901b1785556200032b565b600085815260208120601f198616915b82811015620003d157888601518255948401946001909101908401620003b0565b5085821015620003f05787850151600019600388901b60f8161c191681555b5050505050600190811b01905550565b808201808211156200042257634e487b7160e01b600052601160045260246000fd5b92915050565b610a7d80620004386000396000f3fe608060405234801561001057600080fd5b50600436106101165760003560e01c80637bc1f6cc116100a2578063a9059cbb11610071578063a9059cbb1461022e578063dd62ed3e14610241578063dd7b49f91461027a578063de5f72fd1461028d578063f2fde38b1461029557600080fd5b80637bc1f6cc146101e15780637d1d5d19146102015780638da5cb5b1461020b57806395d89b411461022657600080fd5b8063313ce567116100e9578063313ce5671461018157806340c10f191461019057806370a08231146101a5578063715018a6146101ce57806376697640146101d657600080fd5b806306fdde031461011b578063095ea7b31461013957806318160ddd1461015c57806323b872dd1461016e575b600080fd5b6101236102a8565b60405161013091906108b3565b60405180910390f35b61014c61014736600461091d565b61033a565b6040519015158152602001610130565b6002545b604051908152602001610130565b61014c61017c366004610947565b610354565b60405160068152602001610130565b6101a361019e36600461091d565b610378565b005b6101606101b3366004610983565b6001600160a01b031660009081526020819052604090205490565b6101a361038e565b610160633b9aca0081565b6101606101ef366004610983565b60066020526000908152604090205481565b6101606201518081565b6005546040516001600160a01b039091168152602001610130565b6101236103a2565b61014c61023c36600461091d565b6103b1565b61016061024f36600461099e565b6001600160a01b03918216600090815260016020908152604080832093909416825291909152205490565b610160610288366004610983565b6103bf565b6101a361040b565b6101a36102a3366004610983565b6104d1565b6060600380546102b7906109d1565b80601f01602080910402602001604051908101604052809291908181526020018280546102e3906109d1565b80156103305780601f1061030557610100808354040283529160200191610330565b820191906000526020600020905b81548152906001019060200180831161031357829003601f168201915b5050505050905090565b60003361034881858561050f565b60019150505b92915050565b600033610362858285610521565b61036d8585856105a0565b506001949350505050565b6103806105ff565b61038a828261062c565b5050565b6103966105ff565b6103a06000610662565b565b6060600480546102b7906109d1565b6000336103488185856105a0565b6001600160a01b03811660009081526006602052604081205481906103e8906201518090610a21565b90508042106103fa5750600092915050565b6104044282610a34565b9392505050565b33600090815260066020526040902054610429906201518090610a21565b4210156104765760405162461bcd60e51b815260206004820152601660248201527546617563657420636f6f6c646f776e2061637469766560501b60448201526064015b60405180910390fd5b33600081815260066020526040902042905561049690633b9aca0061062c565b604051633b9aca00815233907fc471df7d13ab46c73ec6eb2da0f35f84077f20d50243ba09a714b82cffc54de99060200160405180910390a2565b6104d96105ff565b6001600160a01b03811661050357604051631e4fbdf760e01b81526000600482015260240161046d565b61050c81610662565b50565b61051c83838360016106b4565b505050565b6001600160a01b0383811660009081526001602090815260408083209386168352929052205460001981101561059a578181101561058b57604051637dc7a0d960e11b81526001600160a01b0384166004820152602481018290526044810183905260640161046d565b61059a848484840360006106b4565b50505050565b6001600160a01b0383166105ca57604051634b637e8f60e11b81526000600482015260240161046d565b6001600160a01b0382166105f45760405163ec442f0560e01b81526000600482015260240161046d565b61051c838383610789565b6005546001600160a01b031633146103a05760405163118cdaa760e01b815233600482015260240161046d565b6001600160a01b0382166106565760405163ec442f0560e01b81526000600482015260240161046d565b61038a60008383610789565b600580546001600160a01b038381166001600160a01b0319831681179093556040519116919082907f8be0079c531659141344cd1fd0a4f28419497f9722a3daafe3b4186f6b6457e090600090a35050565b6001600160a01b0384166106de5760405163e602df0560e01b81526000600482015260240161046d565b6001600160a01b03831661070857604051634a1406b160e11b81526000600482015260240161046d565b6001600160a01b038085166000908152600160209081526040808320938716835292905220829055801561059a57826001600160a01b0316846001600160a01b03167f8c5be1e5ebec7d5bd14f71427d1e84f3dd0314c0f7b2291e5b200ac8c7c3b9258460405161077b91815260200190565b60405180910390a350505050565b6001600160a01b0383166107b45780600260008282546107a99190610a21565b909155506108269050565b6001600160a01b038316600090815260208190526040902054818110156108075760405163391434e360e21b81526001600160a01b0385166004820152602481018290526044810183905260640161046d565b6001600160a01b03841660009081526020819052604090209082900390555b6001600160a01b03821661084257600280548290039055610861565b6001600160a01b03821660009081526020819052604090208054820190555b816001600160a01b0316836001600160a01b03167fddf252ad1be2c89b69c2b068fc378daa952ba7f163c4a11628f55a4df523b3ef836040516108a691815260200190565b60405180910390a3505050565b600060208083528351808285015260005b818110156108e0578581018301518582016040015282016108c4565b506000604082860101526040601f19601f8301168501019250505092915050565b80356001600160a01b038116811461091857600080fd5b919050565b6000806040838503121561093057600080fd5b61093983610901565b946020939093013593505050565b60008060006060848603121561095c57600080fd5b61096584610901565b925061097360208501610901565b9150604084013590509250925092565b60006020828403121561099557600080fd5b61040482610901565b600080604083850312156109b157600080fd5b6109ba83610901565b91506109c860208401610901565b90509250929050565b600181811c908216806109e557607f821691505b602082108103610a0557634e487b7160e01b600052602260045260246000fd5b50919050565b634e487b7160e01b600052601160045260246000fd5b8082018082111561034e5761034e610a0b565b8181038181111561034e5761034e610a0b56fea26469706673582212208e78092e9efcad7d5d7955f1196c9c8a290c768e56e2a7526bc501e76dc4d94b64736f6c63430008140033",
  "linkReferences": {},
  "deployedLinkReferences": {}
}